S00A000066772E737265633D
S31508000000E0AD012045390108873501088935010821
S31508000010D5350108D7350108D93501080000000093
S31508000020000000000000000000000000DB350108A9
S31508000030DD35010800000000DF350108F534010848
S31508000040E13A0108E53A0108E93A0108ED3A0108FA
S31508000050F13A0108F53A0108F1350108F93A0108BB
S31508000060FD3A0108013B0108053B0108093B010867
S315080000700D3B0108113B0108153B0108193B010816
S315080000801D3B0108213B0108253B0108293B0108C6
S315080000902D3B0108313B0108353B0108393B010876
S315080000A03D3B0108413B0108453B0108493B010826
S315080000B04D3B0108513B0108553B0108593B0108D6
S315080000C05D3B0108613B0108653B0108693B010886
S315080000D06D3B0108713B010835260108A526010874
S315080000E0753B01080936010805360108793B010800
S315080000F07D3B0108813B0108853B0108893B0108D6
S315080001008D3B0108E1350108913B0108953B010843
S31508000110993B01089D3B0108A13B0108A53B010845
S31508000120A93B0108AD3B0108B13B0108E9350108C7
S31508000130B53B0108B93B0108BD3B0108C13B0108B5
S31508000140C53B0108C93B0108CD3B01080736010834
S31508000150D13B0108D53B0108D93B01082B270108EB
S31508000160DD3B0108E13B0108E53B0108E93B0108E5
S31508000170ED3B0108F13B0108F53B0108F93B010895
S30D08000180FD3B0108013C0108E2
S3150800C00030B403000C0015006A1E002D04D02578F4
S3150800C0101D70641C5B1CF6E730BC704710B4030047
S3150800C0201400621E002C02D019705B1CF8E710BCC5
S3150800C030704770B403001C000D0000201600721E25
S3150800C040002E06D020782E78801B6D1C641C0028D4
S3150800C050F4D070BC70470278002A04D002788A426D
S3150800C06001D0401CF7E70078704730B4002423005D
S3150800C0702200032A27D20C24DFF8BC5B04FB0254F7
S3150800C0802468002C1BD00C24DFF8AC5B04FB02549C
S3150800C09024680568AC4214D10C24DFF89C5B04FBC9
S3150800C0A0025464688568AC420BD10C24DFF8885BBF
S3150800C0B004FB02542489C588AC4202D103E001245A
S3150800C0C02300521CD5E7032A08D1002B01D10229E7
S3150800C0D001D1002000E01220C0B20EE0002908D1EC
S3150800C0E00C20DFF8541B00FB02104089B0F5807F56
S3150800C0F001D1102000E00020C0B230BC70470021FA
S3150800C1000800032809D20C21DFF82C2B01FB00219B
S3150800C1100968002901D0401CF3E7032801D1002053
S3150800C12000E00120704730B4020000200300032B12
S3150800C1301CD20C20DFF8004B00FB03400068146893
S3150800C140A04211D10C20DFF8F04A00FB03404068FA
S3150800C1509468A04208D10C20DFF8DC4A00FB0340B3
S3150800C1600089D488A04201D05B1CE0E7032B2DD1BF
S3150800C17000200300032B09D20C20DFF8BC4A00FB81
S3150800C18003400068002801D05B1CF3E7032B01D1AC
S3150800C19000203AE010680C24DFF89C5A04FB03548C
S3150800C1A0206090680C24DFF8905A04FB0354606002
S3150800C1B0D0880C24DFF8805A04FB03542081002021
S3150800C1C00C24DFF8745A04FB03546081002909D053
S3150800C1D00C20DFF8644A00FB03404089002801D0A0
S3150800C1E0002012E0002902D04FF4807006E00C20EF
S3150800C1F0DFF8444A00FB03404089401C0C24DFF862
S3150800C200385A04FB03546081581C30BC704730B45C
S3150800C2100100491E032923D20C23DFF81C4A03FB1D
S3150800C22001435B891A0092B2B2F5807F01D10023DF
S3150800C2301A0092B2002A00D0521E0C23DFF8F849E1
S3150800C24003FB01435A8192B2002A06D100230C242B
S3150800C250DFF8E45904FB015423600023180001E0C9
S3150800C26002231800C0B230BC704710B40022110077
S3150800C270032910D20C22DFF8C03902FB01321268FA
S3150800C280824206D100220C23DFF8AC4903FB0143A6
S3150800C2901A60491CECE710BC704770B50400207999
S3150800C2A0002822D0E06A050001232A0014F1300193
S3150800C2B0607801F0C7FB002801D0012016E00020B5
S3150800C2C02071206A281AA16988420ED2E0780600F1
S3150800C2D0022E0AD3A069451901232A0014F1300158
S3150800C2E0607801F0AFFB761EF2E7002070BD38B526
S3150800C2F004000D00E06A854212D02000FFF7CDFF4A
S3150800C300002801D001200CE001232A0014F1300195
S3150800C310607801F06AFB002801D0012001E0E5629F
S3150800C320002032BD38B504002000FFF7B6FF05002F
S3150800C330EDB2002D5FD12078032853D1607901280A
S3150800C34050D14FF40072002114F13000FFF766FE59
S3150800C350552084F82E02AA2084F82F02522084F849
S3150800C3603000522084F83100612084F832004120E0
S3150800C37084F83300722084F81402722084F81502B7
S3150800C380412084F81602612084F81702206984F88F
S3150800C3901802206980B2000A84F819022069000C84
S3150800C3A084F81A022069000E84F81B02E06884F8F3
S3150800C3B01C02E06880B2000A84F81D02E068000CDE
S3150800C3C084F81E02E068000E84F81F02E069401C2B
S3150800C3D0E0620123E26A14F13001607801F032FB71
S3150800C3E00020607100220021607801F061FB0028BE
S3150800C3F001D0012005002800C0B232BD0200891E06
S3150800C4005069801E814201D3002003E09078926A29
S3150800C41000FB012070472DE9F04104000D00022DB4
S3150800C42002D36069854201D3012073E02078012890
S3150800C43004D06BD303284AD031D367E0A84618EB5B
S3150800C4405808206A10EB58212000FFF750FF0028F3
S3150800C4505ED14FF40070B8FBF0F101FB10810819AA
S3150800C46090F83000060018F10108206A10EB5821F0
S3150800C4702000FFF73CFF00284AD14FF40070B8FBB4
S3150800C480F0F101FB1081081990F8300056EA0026F1
S3150800C490E80701D5300901E03005000D3AE0206AC9
S3150800C4A010EB15212000FFF722FF002830D1680085
S3150800C4B04FF40071B0FBF1F202FB11021019303093
S3150800C4C007007878397851EA002080B222E0206A9D
S3150800C4D010EBD5112000FFF70AFF002818D1A80095
S3150800C4E04FF40071B0FBF1F202FB11021019303063
S3150800C4F00700F878B978090451EA0060797850EAB3
S3150800C5000120397808430001000903E0012001E011
S3150800C5105FF0FF30BDE8F0812DE9F84304000D0017
S3150800C5201600022D02D36069854202D30220814695
S3150800C530A0E02078012805D0C0F0988003286BD0A9
S3150800C5404CD393E02F0017EB5707206A10EB5721BF
S3150800C5502000FFF7CCFE81465FFA89F9B9F1000F92
S3150800C56040F086804FF40070B7FBF0F101FB1071C4
S3150800C570081930308046E80706D598F8000010F00C
S3150800C5800F0050EA061000E0300088F800007F1C13
S3150800C59001202071206A10EB57212000FFF7A7FE23
S3150800C5A081465FFA89F9B9F1000F61D14FF400703D
S3150800C5B0B7FBF0F101FB1071081930308046E80727
S3150800C5C001D5300907E098F8000010F0F000310AAC
S3150800C5D011F00F01084388F8000049E0206A10EBC3
S3150800C5E015212000FFF783FE81465FFA89F9B9F124
S3150800C5F0000F3DD168004FF40071B0FBF1F202FB69
S3150800C600110210193030804688F80060300080B278
S3150800C610000A88F801002BE0206A10EBD5112000EB
S3150800C620FFF765FE81465FFA89F9B9F1000F1FD158
S3150800C630A8004FF40071B0FBF1F202FB11021019C9
S3150800C6403030804698F80300000610F07040064324
S3150800C65088F80060300080B2000A88F80100300CC3
S3150800C66088F80200300E88F8030001E002208146AF
S3150800C670012020714846C0B2BDE8F283F8B504002F
S3150800C6800D00022D02D36069854202D302200600FE
S3150800C6902CE0002006006069854227D22900200088
S3150800C6A0FFF7B9FE0700002F20D0012F02D1022084
S3150800C6B006001BE017F1010F02D10120060015E064
S3150800C6C0002229002000FFF727FF0600F6B2002EF9
S3150800C6D00CD1206910F1010F06D02069401C206199
S3150800C6E0607950F0010060713D00D4E73000C0B2B7
S3150800C6F0F2BD2DE9F84304000D00002D0AD1E068CB
S3150800C7008046B8F1000F02D06069804516D3012033
S3150800C710804613E029002000FFF77DFE0600022E62
S3150800C72001D2012058E016F1010F01D1300053E083
S3150800C7306069864201D230004EE0A84647467F1C13
S3150800C7406069874205D302200700B84501D2002058
S3150800C75042E039002000FFF75EFE0600002E0CD1ED
S3150800C7607FF0704239002000FFF7D6FE81465FFA57
S3150800C77089F9B9F1000F13D10AE016F1010F01D0BA
S3150800C780012E01D1300027E04745D8D1002023E00B
S3150800C790002D05D03A0029002000FFF7BDFE81468E
S3150800C7A05FFA89F9B9F1000F0CD1E760206910F139
S3150800C7B0010F10D02069401E2061607950F00100F9
S3150800C7C0607108E05FFA89F9B9F1010F02D15FF0EB
S3150800C7D0FF3700E001273800BDE8F2832DE9F04174
S3150800C7E004000D00E580A0680600012E03D020682D
S3150800C7F04069864201D3022047E0002E06D1206810
S3150800C8000078032802D12068406A0600002E09D164
S3150800C81020680089854201D3022036E02068406AF4
S3150800C82007001FE02068807800018046454514D33C
S3150800C83031002068FFF7EFFD060016F1010F01D160
S3150800C840012022E0022E03D320684069864201D3E4
S3150800C85002201AE0B5EB0805E8E731002068FFF783
S3150800C860CDFD0700E660002F01D102200DE017EB91
S3150800C870151020611020B5FBF0F101FB105120685E
S3150800C88010EB4110303060610020BDE8F0812DE9E1
S3150800C890F04104000D00E088401C0700380402D06F
S3150800C8A02069002801D1042084E01020B7FBF0F1AC
S3150800C8B001FB1071002971D12069401C2061E068D4
S3150800C8C0002805D120680089874267D3042071E0D3
S3150800C8D020688078401E10EA171F5FD1E16820683B
S3150800C8E0FFF799FD0600022E01D2022062E016F13A
S3150800C8F0010F01D101205DE020684069864247D3D7
S3150800C900002D01D1042055E0E1682068FFF7F1FE0B
S3150800C9100600002E01D107204CE0012E01D102208D
S3150800C92048E016F1010F01D1012043E02068FFF726
S3150800C930B4FC002801D001203CE04FF4007200212D
S3150800C94020683030FFF76AFB31002068FFF756FD94
S3150800C9502168C8620020804620688078804511D208
S3150800C9600120216808712068FFF797FC002801D08C
S3150800C97001201FE02068C06A401C2168C86218F1BF
S3150800C9800108E9E72068C06AB0EB08002168C862B8
S3150800C990E66031002068FFF731FD2061E78010204E
S3150800C9A0B7FBF0F101FB1071206810EB4110303035
S3150800C9B060610020BDE8F081F8B504000D00002193
S3150800C9C02000FFF70BFF0600F6B2002E1FD100204D
S3150800C9D0070021692068FFF78AFC0600F6B2002ED8
S3150800C9E015D160690078E52803D0606900780028C9
S3150800C9F003D17F1CAF4202D109E0002007000121C4
S3150800CA002000FFF744FF0600F6B2002EE1D0F6B28A
S3150800CA10042E01D1072006003000C0B2F2BD10B4C2
S3150800CA200200CB7E8C7E54EA03239BB2180013784F
S3150800CA30032B06D14B7D0C7D54EA03239BB250EAA7
S3150800CA40034010BC704781760A0092B2120AC27679
S3150800CA500A0C02750A0C92B2120A42757047F8B5AA
S3150800CA60040000212000FFF7B9FE0700FFB2002FDF
S3150800CA7002D03800C0B225E021692068FFF737FCEC
S3150800CA800700FFB2002F1BD1606906003078050049
S3150800CA90EDB2002D02D10420070011E0F07A00075C
S3150800CAA006D40B22A1693000FFF7C3FA002807D085
S3150800CAB000212000FFF7EBFE0700FFB2002FDBD0B6
S3150800CAC03800C0B2F2BD38B5040001212000FFF7D6
S3150800CAD073FF0500EDB2002D14D121692068FFF718
S3150800CAE006FC0500EDB2002D0CD12022002160695C
S3150800CAF0FFF794FA0B22A1696069FFF781FA012012
S3150800CB00216808712800C0B232BD2DE9F14F0C002A
S3150800CB10206883469BF800002F2803D09BF8000066
S3150800CB205C2802D11BF1010BF4E700988069070025
S3150800CB300B2220213800FFF771FA00200500C0B249
S3150800CB40824681460820804619F80B00060019F12E
S3150800CB500109F6B2212E05DBF6B22F2E02D0F6B267
S3150800CB605C2E06D119EB0B002060F6B2212E41DAB5
S3150800CB703EE0F6B22E2E01D0C2450DD3B8F1080F0D
S3150800CB8002D1F6B22E2E01D0062052E008208246A7
S3150800CB900B208046AD00D7E7F6B2802E07DB55F0AE
S3150800CBA00305F6B2DFF8EC06301810F8806CF6B21A
S3150800CBB03100DFF8E406FFF74EFA002801D0062018
S3150800CBC037E0F6B2412E05DBF6B25B2E02DA55F0F7
S3150800CBD0020508E0F6B2612E05DBF6B27B2E02DA14
S3150800CBE055F00105203E0AF807601AF1010AABE77D
S3150800CBF0042600E00026BAF1000F01D1062018E04D
S3150800CC003878E52801D105203870B8F1080F00D129
S3150800CC10AD00EDB215F00300012801D156F010065B
S3150800CC20EDB215F00C00042801D156F00806FE7284
S3150800CC300020BDE8F28F0000C04C0020F2B50400C9
S3150800CC40009800782F2803D0009800785C2802D135
S3150800CC500098401C00900020A060009800782028CA
S3150800CC6007D200212000FFF7B9FD0500002060610A
S3150800CC7029E000A92000FFF748FF0500EDB2002DC6
S3150800CC8021D12000FFF7EBFE0500A069C07A070056
S3150800CC90EDB2002D07D0EDB2042D03D1780701D4EB
S3150800CCA0052005000FE078070DD460690600F07AC4
S3150800CCB0C00602D40520050005E031002068FFF70C
S3150800CCC0AEFEA060D5E72800C0B2F2BD30B40100C0
S3150800CCD05FF0FF300D68002D1ED00D682B001D7803
S3150800CCE0212D04D31D783A2D01D05B1CF7E71D785A
S3150800CCF03A2D0FD10D682A001578303D2C00521CAC
S3150800CD000A2C06D29A4204D1002C02D120005B1CC0
S3150800CD100B6001E00025280030BC704738B50400D8
S3150800CD200D00002020715FF0FF30E062290020002E
S3150800CD30FFF7DDFA002801D003202DE094F82F0232
S3150800CD4094F82E1251EA002080B24AF655218842FC
S3150800CD5001D0022020E094F8680094F867100902D0
S3150800CD6051EA004094F866100843DFF83015884207
S3150800CD7001D1002010E094F8840094F88310090289
S3150800CD8051EA004094F882100843DFF810158842EB
S3150800CD9001D1002000E0012032BD2DE9F24F8AB012
S3150800CDA004001500002020600A98FFF78FFF049002
S3150800CDB00498002801D50B2018E20498DFF8E0143F
S3150800CDC051F820008146B9F1000F01D10C200DE27F
S3150800CDD0C4F8009099F80000002814D099F80100CA
S3150800CDE000F0FCFD8DF800009DF80000C0070AD48D
S3150800CDF0EDB2002D05D09DF80000400701D50A20A8
S3150800CE00F4E10020F2E1002089F80000049889F88E
S3150800CE10010099F8010000F0CFFD8DF800009DF89B
S3150800CE200000C00701D50320E0E1EDB2002D05D0D2
S3150800CE309DF80000400701D50A20D7E1002006002A
S3150800CE4031004846FFF76AFF82465FFA8AFABAF166
S3150800CE50010F3BD100208346BBF1040F18D219EB12
S3150800CE600B1000F2EE10017900290AD0C17A827AF5
S3150800CE70120452EA0161427A51EA0221007A084311
S3150800CE8000E0002005A941F82B001BF1010BE3E7A0
S3150800CE9000208346BBF1000F01D0BBF1010B05A8AA
S3150800CEA050F82B000600002E04D031004846FFF744
S3150800CEB035FF00E0022082465FFA8AFABAF1000FCF
S3150800CEC004D01BF1010BBBF1040FE8D35FFA8AFA11
S3150800CED0BAF1030F01D1012088E15FFA8AFABAF1A3
S3150800CEE0000F01D00D2081E199F83C0099F83B101C
S3150800CEF051EA002080B2B0F5007F01D00D2075E11F
S3150800CF0099F8470099F8461051EA002080B20700C0
S3150800CF10002F0ED199F8570099F85610090451EACE
S3150800CF20006099F8551050EA012099F85410084302
S3150800CF300700C9F8187099F8400089F8030099F8AD
S3150800CF400300012805D099F80300022801D00D2016
S3150800CF504CE199F80300474399F83D0089F8020027
S3150800CF6099F80200002806D099F8020099F80210EC
S3150800CF70491E084201D00D2038E199F8420099F877
S3150800CF80411051EA0020A9F80800B9F80800102154
S3150800CF90B0FBF1F202FB1102002A01D00D2025E1B7
S3150800CFA099F8440099F8431051EA002080B202909B
S3150800CFB0029800280ED199F8530099F852100904DE
S3150800CFC051EA006099F8511050EA012099F850107A
S3150800CFD00843029099F83F0099F83E1051EA00205C
S3150800CFE0ADF80200BDF80200002801D10D20FDE0D1
S3150800CFF0BDF8020017FA80F0B9F8081010EB111006
S3150800D000039002980399884201D20D20EEE0029817
S3150800D0100399401A99F80210B0FBF1F001900198B3
S3150800D020002801D10D20E1E001208246019840F652
S3150800D030F671884201D30220824601984FF6F671AE
S3150800D040884201D3032082460198801CC9F814003F
S3150800D050C9F81C60BDF8020016FA80F0C9F820006D
S3150800D06003988019C9F828005FFA8AFABAF1030FFB
S3150800D0701AD1B9F80800002801D00D20B6E099F8B1
S3150800D0805F0099F85E10090451EA006099F85D108E
S3150800D09050EA012099F85C100843C9F82400D9F829
S3150800D0A01400800080461EE0B9F80800002801D167
S3150800D0B00D209BE0D9F820003818C9F824005FFA3B
S3150800D0C08AFABAF1020F04D1D9F814005FEA4008C7
S3150800D0D009E0D9F814000321484399F8141011F00F
S3150800D0E0010111EB5008D9F8180008F2FF11B0EB4E
S3150800D0F0512F01D20D2079E05FF0FF30C9F81000FA
S3150800D100C9F80C00802089F805005FFA8AFABAF196
S3150800D110030F5ED199F8610099F8601051EA002072
S3150800D12080B2012855D1711C4846FFF7E0F800285F
S3150800D1304FD1002089F8050099F82F0299F82E1288
S3150800D14051EA002080B24AF65521884241D199F821
S3150800D150330099F83210090451EA006099F8311041
S3150800D16050EA012099F8301008434E49884230D1D8
S3150800D17099F8170299F81612090451EA006099F805
S3150800D180151250EA012099F81412084346498842B4
S3150800D1901FD199F81B0299F81A12090451EA00607E
S3150800D1A099F8191250EA012099F818120843C9F893
S3150800D1B0100099F81F0299F81E12090451EA006036
S3150800D1C099F81D1250EA012099F81C120843C9F86B
S3150800D1D00C0089F800A035480088401C33490880AF
S3150800D1E0A9F806004846FFF740F800200BB0BDE84E
S3150800D1F0F08F38B504002500002D0BD028680028CC
S3150800D20008D028680078002804D02868C088A9882B
S3150800D210884201D0092008E02868407800F0DEFB43
S3150800D220C00701D5032000E0002032BDF3B581B068
S3150800D23014000298009000A8FFF748FD0600002E8B
S3150800D24001D50B2024E0164850F826000500002DCD
S3150800D25004D02800FFF709F8002028700198002854
S3150800D26002D000200199087001980D4941F826005E
S3150800D2700198002802D0E4B2012C01D0002007E072
S3150800D280002202A901A8FFF788FD07003800C0B2EE
S3150800D290FEBD000094370108B03901084641540024
S3150800D2A0884D00205252614172724161BE4D002084
S3150800D2B02DE9F2438CB004001500002C01D1092099
S3150800D2C0D9E00020206015F01F0515F0FE020CA914
S3150800D2D000A8FFF762FD0600F6B2002E40F0C980EE
S3150800D2E008A806900C9900A8FFF7A8FC0600059860
S3150800D2F00700F6B2002E0ED1002F02D10620060036
S3150800D30009E0FE20054201D0012100E0002100A825
S3150800D310FEF7ABFE06001C20054261D0F6B2002ED1
S3150800D32011D0F6B2042E09D1FEF7E9FE002803D083
S3150800D33000A8FFF7C8FB00E01220060055F0080514
S3150800D340059807000AE0F87A1121084202D007205A
S3150800D350060003E0680701D508200600F6B2002E8D
S3150800D3604ED128074CD500F0D5FB804687F80E80AD
S3150800D370404680B2000AF8735FEA184038745FEADC
S3150800D380186078740020F8720020387700207877C3
S3150800D3900020B8770020F87739000098FFF73FFBA0
S3150800D3A0814600213800FFF74EFB012000990871DD
S3150800D3B0B9F1000F24D00098C06A80464946009803
S3150800D3C0FFF75CF90600F6B2002E19D1B9F1010093
S3150800D3D00099C86041460098FEF789FF06000FE0ED
S3150800D3E0F6B2002E0CD1F87AC00602D50420060043
S3150800D3F006E0A80704D5F87AC00701D50720060075
S3150800D400F6B2002E16D1280701D555F0200500984A
S3150800D410C06AE0612762FE20054201D0012100E0D2
S3150800D420002100A8FEF77FFE6062606A002801D12D
S3150800D43002200600F6B2002E1BD1A5710020E0716D
S3150800D44039000098FFF7EBFA2061F87FB97F0904E5
S3150800D45051EA0060797F50EA0120397F0843E0608D
S3150800D4600020A0600020A061009820602068C08885
S3150800D470A0803000C0B20DB0BDE8F0832DE9F24FB0
S3150800D48082B0834614001D00DDF808A0002028603D
S3150800D4905846FFF7AEFE8DF801009DF801000028FA
S3150800D4A002D09DF8010031E19BF80700002802D060
S3150800D4B09BF807002AE19BF80600800701D407209D
S3150800D4C024E1DBF808002018DBF80810884201D2AE
S3150800D4D000200400002C00F00881DBF808004FF457
S3150800D4E00071B0FBF1F202FB1102002A40F0CB807A
S3150800D4F0DBF80800400ADBF800108978491E084066
S3150800D5008DF800009DF80000002830D1DBF80800EF
S3150800D51000280BD1DBF810000600002E0DD10021E3
S3150800D520DBF80000FFF7E5F8060006E0DBF8141064
S3150800D530DBF80000FFF7DDF80600002E00F0D580C6
S3150800D540012E04D102208BF807000220DEE016F136
S3150800D550010F04D101208BF807000120D6E0CBF893
S3150800D5601460DBF81000002801D1CBF810609BF896
S3150800D5700600400616D50123DBF818201BF1280102
S3150800D580DBF80000407800F05DFA002804D001209E
S3150800D5908BF807000120B9E09BF8060010F0BF00E1
S3150800D5A08BF80600DBF81410DBF80000FEF726FF00
S3150800D5B00700002F04D102208BF807000220A5E0FF
S3150800D5C09DF8000057FA80F7600A8146B9F1000F06
S3150800D5D03DD0DBF8000080789DF8001059FA81F1FB
S3150800D5E0884206D2DBF8000080789DF80010401AC1
S3150800D5F081464B46DBB23A005146DBF800004078DC
S3150800D60000F020FA002804D001208BF8070001203A
S3150800D6107CE0DBF81800C01B484512D24FF40072B4
S3150800D620DBF81800C01B4FF4007101FB00A11BF1C9
S3150800D6302800FEF7E5FC9BF8060010F0BF008BF803
S3150800D64006004FF4007000FB09F080463EE0DBF868
S3150800D6501800B84215D0DBF80800DBF80C10884231
S3150800D6600FD201233A001BF12801DBF800004078AD
S3150800D67000F0BBF9002804D001208BF80700012030
S3150800D68044E0CBF81870DBF808004FF40071B0FBE3
S3150800D690F1F202FB1102D2F500708046444500D231
S3150800D6A0A04642465146DBF808004FF40073B0FB2B
S3150800D6B0F3FC0CFB130C1CEB0B002830FEF7A0FC4C
S3150800D6C09BF8060050F040008BF8060018EB0A0A93
S3150800D6D0DBF8080018EB0000CBF80800286818EB00
S3150800D6E000002860B4EB0804F4E6DBF80C00DBF86D
S3150800D6F00810884203D2DBF80800CBF80C009BF828
S3150800D700060050F020008BF806000020BDE8FE8FCA
S3150800D710F8B504002000FFF76CFD0500EDB2002DFA
S3150800D7204ED1A07980064BD5A07940060FD50123A6
S3150800D730A26914F128012068407800F083F90028CE
S3150800D74001D001203EE0A07910F0BF00A071E16988
S3150800D7502068FEF7CCFD0500EDB2002D30D1206A19
S3150800D7600700F87A50F02000F872E0683877E06829
S3150800D77080B2000A7877E068000CB877E068000E97
S3150800D780F87721693800FFF75EF900F0C3F906005B
S3150800D790BE75300080B2000AF875300C3876300E47
S3150800D7A078760020B8740020F874A07910F0DF00AD
S3150800D7B0A0710120216808712068FEF7B3FD0500F5
S3150800D7C02800C0B2F2BD38B504002000FFF7A0FF5C
S3150800D7D00500EDB2002D0FD12000FFF70AFD050068
S3150800D7E0EDB2002D08D1606AFEF711FD0500EDB215
S3150800D7F0002D01D1002020602800C0B232BD2DE9DD
S3150800D800F04704000D002000FFF7F3FC0600F6B20F
S3150800D810002E02D03000C0B2CCE0E079002801D05A
S3150800D820E079C7E0E068A84204D2A079800701D46D
S3150800D830E0680500A068824600208146A060002DA9
S3150800D8407BD0206880784FF4007148438046BAF14F
S3150800D850000F13D0BAF10100B0FBF8F0691EB1FB56
S3150800D860F8F181420AD3BAF10100B8F101018843FF
S3150800D870A060A0682D1A6069070017E020690700F4
S3150800D880002F12D100212068FEF733FF0700012F71
S3150800D89003D10220E07102208CE017F1010F03D1B9
S3150800D8A00120E071012085E027616761002F44D0DF
S3150800D8B0A84529D2A079800708D539002068FEF73F
S3150800D8C018FF0700002F06D145461DE039002068DD
S3150800D8D0FEF7A1FD070017F1010F03D10120E07142
S3150800D8E0012067E0022F03D320684069874203D3EB
S3150800D8F00220E07102205DE06761A06818EB000075
S3150800D900A060B5EB0805D3E7A0682818A0604FF417
S3150800D9100070B5FBF0F101FB105100290DD039005C
S3150800D9202068FEF76BFD8146B9F1000F03D102208E
S3150800D930E07102203EE019EB5529A0684FF400710A
S3150800D940B0FBF1F202FB1102002A27D0A06981453B
S3150800D95024D0A079400611D50123A26914F1280123
S3150800D9602068407800F06EF8002803D00120E071A6
S3150800D97001201FE0A07910F0BF00A07101234A46DC
S3150800D98014F128012068407800F02FF8002803D009
S3150800D9900120E07101200DE0C4F81890E068A16844
S3150800D9A0884205D2A068E060A07950F02000A071F6
S3150800D9B03000C0B2BDE8F08738B5040000F0BCF806
S3150800D9C03749087036480078002802D1002005003B
S3150800D9D001E0012005002800C0B232BD0100002088
S3150800D9E0304A12781000C0B270472DE9F843040097
S3150800D9F00D0016001F00DFF8B0805FF00009FFB2C7
S3150800DA003B004FF400724FF4007000FB06F128004B
S3150800DA1000F08DFD00F02AFE814600F0FBF8002894
S3150800DA2006D04046B0F101080028F6D1012007E0EB
S3150800DA305FFA89F9B9F1000F01D1002000E003204F
S3150800DA40BDE8F2832DE9F84304000D0016001F0017
S3150800DA505FF00008DFF85490FFB23B004FF4007205
S3150800DA604FF4007000FB06F1280000F053FE00F0AA
S3150800DA7039FF804600F0CEF8002806D04846B0F1B7
S3150800DA8001090028F6D1012007E05FFA88F8B8F105
S3150800DA90000F01D1002000E00320BDE8F28300005A
S3150800DAA0D94D00202C010020A0860100400D03005E
S3150800DAB0F0B597B004000D00160001200700EDB27E
S3150800DAC0002D05D0022D13D005D3032D16D01BE04B
S3150800DAD0002007001AE000A800F0C1FADDE91201EB
S3150800DAE0400A40EAC150490A3060002007000DE0AC
S3150800DAF04FF4007030800020070007E04FF40070F4
S3150800DB0030600020070001E0042007003800C0B29A
S3150800DB1017B0F0BD704750F8041B61B150F8042BDC
S3150800DB20D30744BFA9F101039A18002342F8043B1E
S3150800DB30091FFAD1EFE7704780B500208DF800007D
S3150800DB4001F02EFB01F024FC00F092F88DF800009D
S3150800DB509DF80000002802D09DF8000059E000F06A
S3150800DB60ADF98DF800009DF80000002802D09DF858
S3150800DB7000004EE00020DFF8EC1A08750020DFF8F8
S3150800DB80E41A08600020DFF8DC1A48600020DFF895
S3150800DB90D41A88600020DFF8CC1AC8600020DFF8A5
S3150800DBA0C41A0861DFF8BC0A01F0FEFBDFF8B80A00
S3150800DBB000F055FA8DF800009DF80000002808D1FD
S3150800DBC0DFF8A40AB0F85400000400F094FC8DF8BD
S3150800DBD000009DF80000002805D14FF4006000F011
S3150800DBE026FC8DF800009DF8000000280FD1DFF80C
S3150800DBF0140B007810F0FD00DFF8081B0870DFF83A
S3150800DC00040B007810F0FE00DFF8F81A08709DF88B
S3150800DC10000002BD10B5042400F00DF80400E4B2BB
S3150800DC20042C01D1002005E0E4B2FF2C01D102202A
S3150800DC3000E0012010BD80B50020009000F010F82B
S3150800DC4001280BD100A800F0BFFE002801D0FF2054
S3150800DC5005E00098400A10F00F0000E0FF2002BD22
S3150800DC6081B001208DF800009DF8000001B07047D2
S3150800DC70F8B500208DF800000024002500260027AE
S3150800DC807620DFF8E01908750020DFF8D819086053
S3150800DC900020DFF8D01948600020DFF8C81988602E
S3150800DCA00020DFF8C019C8600020DFF8B81908613D
S3150800DCB0DFF8B00901F078FB032001F08EFB0120A4
S3150800DCC001F087FB0020DFF8401A08600020DFF823
S3150800DCD0381A48600020DFF8301A88600020DFF81C
S3150800DCE0281AC8604FF48060DFF81C1A0861DFF84C
S3150800DCF0180A01F07AFB00F007FF8DF800009DF87E
S3150800DD000000002802D09DF80000D6E04FF4D57038
S3150800DD10DFF8F41908600820DFF8EC19486040209D
S3150800DD20DFF8E41988600020DFF8DC19C8604FF4D2
S3150800DD308060DFF8D4190861DFF8CC0901F055FBDB
S3150800DD4000F0FEFE8DF800009DF80000002807D1BF
S3150800DD500120DFF8B81908605FF0804007001DE071
S3150800DD600020DFF8A41908603720DFF89C194860FE
S3150800DD704020DFF8941988600020DFF88C19C86005
S3150800DD804FF48060DFF880190861DFF87C0901F03C
S3150800DD902CFB372000F00AFF8DF800000020DFF882
S3150800DDA0681908603720DFF8601948604020DFF8F6
S3150800DDB0581988600020DFF85019C8604FF4806051
S3150800DDC0DFF844190861DFF8400901F00EFB372037
S3150800DDD000F0ECFE8DF800009DF8000000286AD1DE
S3150800DDE0002E56D14FF6FF70854252D20020DFF83A
S3150800DDF0181908603720DFF8101948604020DFF846
S3150800DE00081988600020DFF80019C8604FF48060A0
S3150800DE10DFF8F4180861DFF8F00801F0E6FA3720B1
S3150800DE2000F0C4FE8DF800009DF80000002802D01E
S3150800DE309DF8000041E0DFF8D8083843DFF8C81835
S3150800DE4008602920DFF8C01848604020DFF8B818B5
S3150800DE5088600020DFF8B018C8604FF48060DFF8EB
S3150800DE60A8180861DFF8A00801F0BFFA00F027FF3C
S3150800DE708DF800009DF80000002802D09DF80000EB
S3150800DE801BE0002001F0C9FA0400E00F06006D1C33
S3150800DE90A6E74FF6FF70854205D31B208DF80000D4
S3150800DEA09DF8000009E014F08044002C03D00220FD
S3150800DEB0DFF8581808609DF80000F2BD10B582B06A
S3150800DEC000240120ADF8000001F08AFA002804D1E8
S3150800DED0252004002000C0B2C0E0DFF83008006842
S3150800DEE0042839D00020DFF8201808600220DFF85F
S3150800DEF018184860C020DFF8101888600020DFF87E
S3150800DF000818C8604FF48060DFF8FC170861DFF86E
S3150800DF10F80701F06AFA00F0F1FE0400E4B2002CFA
S3150800DF2002D02000C0B299E0002001F076FADFF8AE
S3150800DF30B0190860042001F070FADFF8A4194860E7
S3150800DF40082001F06AFADFF8981988600C2001F0B9
S3150800DF5064FADFF88C19C860DFF8B0070068002893
S3150800DF600ED0DFF8A8070068012809D0DFF89C075B
S3150800DF700068062804D0DFF894070068022823D131
S3150800DF800020DFF8841708600320DFF87C17486054
S3150800DF904020DFF8741788600020DFF86C17C86027
S3150800DFA04FF48060DFF860170861DFF85C0701F05E
S3150800DFB01CFA00A9032000F0CAFE0400E4B2002CF3
S3150800DFC002D02000C0B249E0DFF840070068042804
S3150800DFD040D0BDF80000DFF8A4190860BDF80000BD
S3150800DFE00004DFF8241708600920DFF81C174860CA
S3150800DFF0C020DFF8141788600020DFF80C17C86007
S3150800E0004FF48060DFF800170861DFF8FC0601F0BE
S3150800E010ECF900F073FE0400E4B2002C02D02000F4
S3150800E020C0B21BE0002001F0F8F9DFF89819086083
S3150800E030042001F0F2F9DFF88C194860082001F095
S3150800E040ECF9DFF8801988600C2001F0E6F9DFF8B2
S3150800E0507419C860002004002000C0B216BD2DE95E
S3150800E060D003010000200024DFF8A026126881F8FA
S3150800E0705620DFF808291268A1F85420DFF8442949
S3150800E0801268120E1400E4B2A2090A70C4F38302DD
S3150800E0904A7014F003028A70DFF828291268120CF5
S3150800E0A01400CC70DFF81C291268120A14000C71CF
S3150800E0B0DFF81029126814004C71DFF80829526835
S3150800E0C0120E1400E4B22201CA80DFF8F82852685A
S3150800E0D0120C1400CA88E4B22309DBB21A43CA80B8
S3150800E0E014F00F020A72DFF8DC285268120A1400CC
S3150800E0F0E4B2E2094A72C4F380128A72C4F3401287
S3150800E100CA72C4F300120A7300224A73DFF8FC25A8
S3150800E1101268002A04D0DFF8F4251268012A5DD1B6
S3150800E120E4B214F0030292020A61DFF898285268F2
S3150800E13014000A69E4B252EA84020A61DFF8842804
S3150800E1409268120E14000A69E4B2A309DBB21A43F4
S3150800E1500A61C4F3C2020A7514F007024A75DFF8A9
S3150800E16064289268120C1400E4B262098A75C4F332
S3150800E1708202CA7514F0030252000A76DFF84428B0
S3150800E1809268120A14000A7EE4B252EAD4120A7697
S3150800E1900A69521C0023C1E91223D1E91267012238
S3150800E1A00B7E9B1C9A40D317A2FB068902FB079994
S3150800E1B003FB0699C1E91289012291F908309A40B0
S3150800E1C00A65D1E912670A6D0023A2FB068902FBDC
S3150800E1D0079903FB0699C1E9128930E0DFF82C2577
S3150800E1E01268022A2BD1DFF8DC2752681400E4B241
S3150800E1F014F03F0212040A61DFF8C8279268120E6B
S3150800E20014000A69E4B252EA04220A61DFF8B42764
S3150800E2109268120C14000A69E4B222430A61DFF814
S3150800E220A4279268120A14000A69521C5FF4002394
S3150800E2305A430023C1E912234FF400720A65C4F356
S3150800E24080124A7614F03F0252008A76DFF8742765
S3150800E250926814008A7EE4B252EAD4128A7614F0DE
S3150800E2607F02CA76DFF85C27D268120E1400E4B281
S3150800E270E2090A77C4F341124A77C4F382028A771D
S3150800E28014F003029200CA77DFF83827D268120C16
S3150800E2901400CA7FE4B252EA9412CA77C4F3401251
S3150800E2A081F82020002281F8212014F0010281F84B
S3150800E2B02220DFF81027D268120A1400E4B2E20915
S3150800E2C081F82320C4F3801281F82420C4F3401275
S3150800E2D081F82520C4F3001281F82620C4F38102B0
S3150800E2E081F8272014F0030281F82820DFF8D426C5
S3150800E2F0D2681400E4B2620881F82920012281F864
S3150800E3002A20DFF8DC251268120E140081F82C404A
S3150800E310DFF8CC251268120C1400E4B22202CA8572
S3150800E320DFF8BC251268120A1400CA8DE4B222432B
S3150800E330CA85DFF8AC2512681400E4B222060A631F
S3150800E340DFF89C255268120E14000A6BE4B252EAF2
S3150800E35004420A63DFF888255268120C14000A6B17
S3150800E360E4B252EA04220A63DFF874255268120AF4
S3150800E37014000A6BE4B222430A63DFF86425526884
S3150800E380140081F83440DFF858259268120E1400FC
S3150800E39081F83540DFF848259268120C1400E4B27B
S3150800E3A022068A63DFF838259268120A14008A6BF7
S3150800E3B0E4B252EA04428A63DFF82425926814001C
S3150800E3C08A6BE4B252EA04228A63DFF81425D2681B
S3150800E3D0120E14008A6BE4B222438A63DFF8002522
S3150800E3E0D268120C140091F83C20E4B252EA1412D6
S3150800E3F081F83C20E4B214F00F021202CA87DFF853
S3150800E400E024D268120A1400CA8FE4B22243CA87EB
S3150800E410DFF8CC24D2681400E4B2620881F8402000
S3150800E420012281F84120C0B2BDE8D003704738B553
S3150800E43004000025DFF8D4020068032804D1272049
S3150800E44005002800C0B255E0DFF8C00200680028C1
S3150800E45009D0DFF8B8020068012804D0DFF8AC025A
S3150800E4600068022844D1B4F5805F04D1272005004E
S3150800E4702800C0B23EE0B4F5006F1DD1012000F0BF
S3150800E480BFFC0500EDB2002D32D100207549087594
S3150800E49000207449086000207249486000207149CC
S3150800E4A088604FF400606F49C86000206D490861B4
S3150800E4B06C4800F079FF1BE0002000F0A1FC050085
S3150800E4C0EDB2002D14D10020664908750020654973
S3150800E4D0086000206349486000206249886000207F
S3150800E4E06049C86000205F4908615E4800F05CFF2B
S3150800E4F02800C0B232BD38B5040000258248046041
S3150800E50007208149486040207F49886000207E496D
S3150800E510C8604FF480607C4908617B4800F065FF5D
S3150800E520072000F043FB05002800C0B232BD2DE9E4
S3150800E530F04104000D0016001F005FF000080020DF
S3150800E540DFF8501608700020DFF84C160860012026
S3150800E550DFF8481608600020DFF8441608606B48A4
S3150800E5600068022803D14FF4007006006D0AB6B29F
S3150800E570DFF8800806601020DFF878184860402029
S3150800E580DFF8701888600020DFF86818C8604FF454
S3150800E5908060DFF860180861DFF8580800F025FF8A
S3150800E5A0102000F003FB80465FFA88F8B8F1000FE8
S3150800E5B002D04046C0B252E0DFF8E805DFF8E815B9
S3150800E5C00860B6B206FB07F0DFF8DC154860902055
S3150800E5D0DFF8D41588600220DFF8CC15C860002063
S3150800E5E0DFF8C41508610120DFF8BC154861DFF8BB
S3150800E5F0B80500F01DFFDFF8FC0705601220DFF8FC
S3150800E600F41748604020DFF8EC1788600020DFF830
S3150800E610E417C8604FF48060DFF8D8170861DFF8A0
S3150800E620D40700F0E2FE122000F0C0FA80465FFA36
S3150800E63088F8B8F1000F02D04046C0B20FE00121B9
S3150800E64040F22A3000F012FF012000F00BFFB6B2AC
S3150800E65006FB07F1200000F040FE4046C0B2BDE8C8
S3150800E660F0810000044D0020684C002038B50024D5
S3150800E670DFF830050500DFF88007006800280DD1AF
S3150800E680DFF814050068002808D1DFF808050078C7
S3150800E690002803D1002D01D06D1EECE70020DFF81D
S3150800E6A058170860DFF8FC040500DFF85007006813
S3150800E6B0800403D5002D01D06D1EF6E7DFF8DC04D3
S3150800E6C00068012806D100F05BF904000020DFF895
S3150800E6D0CC140860002D04D1E4B2002C01D104202A
S3150800E6E0040040F2FF5000F0DDFEDFF8A8040078D1
S3150800E6F0002803D0DFF89C04007801E02000C0B2AF
S3150800E70032BD00002C010020344D0020A44D00200D
S3150800E710000010802DE9F04104000D0016001F00CE
S3150800E7205FF000080020DFF86C1408700020DFF89E
S3150800E730681408600120DFF8641408600020DFF818
S3150800E74060140860DFF850080068022803D14FF407
S3150800E750007006006D0AB6B2DFF89806066010204B
S3150800E760DFF8901648604020DFF888168860002099
S3150800E770DFF88016C8604FF48060DFF87816086105
S3150800E780DFF8700600F031FE102000F00FFA804620
S3150800E7905FFA88F8B8F1000F02D04046C0B29DE093
S3150800E7A0764800680004DFF84C1608603720DFF862
S3150800E7B0441648604020DFF83C1688600020DFF8E1
S3150800E7C03416C8604FF48060DFF828160861DFF851
S3150800E7D0240600F00AFE372000F0E8F980465FFAC2
S3150800E7E088F8B8F1000F02D04046C0B276E0DFF8EC
S3150800E7F0040607601720DFF8FC1548604020DFF89C
S3150800E800F41588600020DFF8EC15C8604FF48060C6
S3150800E810DFF8E0150861DFF8DC0500F0E6FD1720F3
S3150800E82000F0C4F980465FFA88F8B8F1000F02D004
S3150800E8304046C0B252E0DFF8BC0505601920DFF893
S3150800E840B41548604020DFF8AC1588600020DFF872
S3150800E850A415C8604FF48060DFF898150861DFF8E2
S3150800E860940500F0C2FD192000F0A0F980465FFA71
S3150800E87088F8B8F1000F02D04046C0B22EE0DFF8A3
S3150800E8802403DFF824130860B6B206FB07F0DFF8A6
S3150800E890181348609020DFF8101388600020DFF80E
S3150800E8A00813C8600020DFF8001308610120DFF8AC
S3150800E8B0F8124861DFF8F00200F0BAFD012140F2D3
S3150800E8C02A3000F0D3FD012000F0CCFDB6B206FBDD
S3150800E8D007F1200000F0BAFC4046C0B2BDE8F0815E
S3150800E8E0684D002038B50024DFF8B8020500DFF8C7
S3150800E8F00805006800280DD1DFF89C02006800288A
S3150800E90008D1DFF890020078002803D1002D01D045
S3150800E9106D1EECE70020DFF8E0140860DFF88402DB
S3150800E9200500DFF8D8040068C00403D5002D01D01F
S3150800E9306D1EF6E7DFF864020068012806D100F0CC
S3150800E9401FF804000020DFF854120860002D04D1D7
S3150800E950E4B2002C01D10420040040F2FF5000F07C
S3150800E960A1FDDFF830020078002803D0DFF8240282
S3150800E970007801E02000C0B232BD0000A84D00209A
S3150800E98010B500240020DFF86C1408600C20DFF8AE
S3150800E990641448604020DFF85C1488600020DFF8C3
S3150800E9A05414C8604FF48060DFF848140861DFF833
S3150800E9B0440400F01AFD0C2000F0F8F804002000CA
S3150800E9C0C0B210BD584D002038B504000025002CF3
S3150800E9D004D1262005002800C0B22BE0DFF868081D
S3150800E9E000680004DFF80C1408600D20DFF8041432
S3150800E9F048604020DFF8FC1388600020DFF8F41335
S3150800EA00C8604FF48060DFF8EC130861DFF8E403B0
S3150800EA1000F0EBFC0D2000F0C9F80500EDB2002D62
S3150800EA2002D02800C0B205E0002000F0F6FC206005
S3150800EA302800C0B232BD80B54FF4807000F035FDB5
S3150800EA4000280AD00020534908704FF4807000F05F
S3150800EA5039FD0120504908603CE0022000F025FD00
S3150800EA60002806D0022000F02DFD02204949087032
S3150800EA7030E0082000F019FD002806D0082000F034
S3150800EA8021FD04204349087024E0202000F00DFDF4
S3150800EA90002806D0202000F015FD06203D49087004
S3150800EAA018E0102000F001FD002806D0102000F024
S3150800EAB009FD0520374908700CE04FF4007000F096
S3150800EAC0F4FC002806D04FF4007000F0FBFC072089
S3150800EAD03049087000214CF23A3000F0C7FC2D4846
S3150800EAE0007802BD80B5DFF88408006810F0C05FC2
S3150800EAF008D00120C04908605FF0C251DFF87008ED
S3150800EB0000F0E9FD01BD000038B500245FF480304F
S3150800EB100500002D06D0802000F0B7FC002801D1A2
S3150800EB206D1EF6E7002D04D1032004002000C0B2B4
S3150800EB3005E040F2FF5000F0B5FC2000C0B232BD3F
S3150800EB4070B500245FF48036AC480068050015F0FF
S3150800EB50450F06D1002E04D0761EA8480068050089
S3150800EB60F5E7002E01D0680707D503200400042026
S3150800EB7000F098FC2000C0B20BE0680607D500201C
S3150800EB800400402000F08EFC2000C0B201E0200006
S3150800EB90C0B270BDDA4D0020B04D0020AC4D00204B
S3150800EBA02C2C0140FFFF0F001C4D0020F8B5040077
S3150800EBB0002592480068060016F0450F03D18F48D5
S3150800EBC000680600F8E7700707D50320050004204B
S3150800EBD000F068FC2800C0B270E0F00707D50120F5
S3150800EBE00500012000F05EFC2800C0B266E000F0D7
S3150800EBF010FCE4B2A04204D0102005002800C0B2E0
S3150800EC005CE040F2FF5000F04DFC002000F005FCEF
S3150800EC100700DFF86007074202D12800C0B24DE0BE
S3150800EC20002F01D51C2049E0780001D5092045E0D0
S3150800EC30B80001D50A2041E0F80001D50B203DE0D7
S3150800EC40380101D50C2039E0780101D50D2035E0D1
S3150800EC50F80101D50E2031E0380201D50F202DE04C
S3150800EC60780201D5102029E0B80201D5112025E047
S3150800EC70F80201D5122021E0380301D513201DE042
S3150800EC80780301D5142019E0B80301D5152015E03D
S3150800EC90F80301D5162011E0380401D517200DE038
S3150800ECA0780401D5182009E0B80401D5192005E033
S3150800ECB0380701D51A2001E02800C0B2F2BD38B5E0
S3150800ECC00024DFF8B4060068050015F0450F04D1E6
S3150800ECD0DFF8A40600680500F7E7680707D50320EC
S3150800ECE00400042000F0DEFB2000C0B205E040F27C
S3150800ECF0FF5000F0D7FB2000C0B232BD38B5002562
S3150800ED00DFF874060068040014F0450F04D1DFF834
S3150800ED10680600680400F7E7600707D503200500C2
S3150800ED20042000F0BFFB2800C0B20FE0E00707D5BB
S3150800ED3001200500012000F0B5FB2800C0B205E05F
S3150800ED4040F2FF5000F0AEFB2800C0B232BD2DE9FC
S3150800ED50F04104000D000026DFF81C0600680700D5
S3150800ED6017F0450F04D1DFF8100600680700F7E72B
S3150800ED70780707D503200600042000F093FB30002F
S3150800ED80C0B235E0F80707D501200600012000F0DB
S3150800ED9089FB3000C0B22BE000F03BFBE4B2A04296
S3150800EDA004D0102006003000C0B221E040F2FF5027
S3150800EDB000F078FB002000F030FB804618F4604F26
S3150800EDC005D15FEA184028803000C0B210E05FEA3B
S3150800EDD0884001D513200BE05FEA484001D5102092
S3150800EDE006E05FEA084001D50F2001E03000C0B216
S3150800EDF0BDE8F081344D0020B44D0020342C01408C
S3150800EE0030B583B00400002500A80021002206C002
S3150800EE100838002000F001FB800104D50E2005000B
S3150800EE202800C0B2B7E000A9DFF81C04006880B269
S3150800EE3000F0B4F80500EDB2002D02D02800C0B2EB
S3150800EE40A9E0E4B2012C53D1019840034BD5DFF871
S3150800EE50F80300680004DFF8241508603720DFF897
S3150800EE601C1548604020DFF8141588600020DFF87C
S3150800EE700C15C8604FF48060DFF800150861DFF8EC
S3150800EE80FC0400F0B2FA3720FFF790FE0500EDB259
S3150800EE90002D02D02800C0B27DE00220DFF8DC1485
S3150800EEA008600620DFF8D41448604020DFF8CC1448
S3150800EEB088600020DFF8C414C8604FF48060DFF86B
S3150800EEC0BC140861DFF8B40400F08FFA0620FFF7D7
S3150800EED06DFE0500EDB2002D02D02800C0B25AE042
S3150800EEE02800C0B257E0252005002800C0B252E02D
S3150800EEF00198C0034BD5DFF8500300680004DFF81B
S3150800EF007C1408603720DFF8741448604020DFF866
S3150800EF106C1488600020DFF86414C8604FF48060C1
S3150800EF20DFF858140861DFF8540400F05EFA372059
S3150800EF30FFF73CFE0500EDB2002D02D02800C0B256
S3150800EF4029E00020DFF8341408600620DFF82C14C6
S3150800EF5048604020DFF8241488600020DFF81C147D
S3150800EF60C8604FF48060DFF814140861DFF80C04F9
S3150800EF7000F03BFA0620FFF719FE0500EDB2002D5A
S3150800EF8002D02800C0B206E02800C0B203E025205F
S3150800EF9005002800C0B23EBDA44D0020F0B583B0E0
S3150800EFA004000D000026002700A80021002206C044
S3150800EFB008380820DFF8C41308601020DFF8BC13EF
S3150800EFC048604020DFF8B41388600020DFF8AC13EF
S3150800EFD0C8604FF48060DFF8A4130861DFF89C036B
S3150800EFE000F003FA1020FFF7E1FD0700FFB2002F3B
S3150800EFF002D03800C0B2D2E0934800680004DFF8B7
S3150800F0007C1308603720DFF8741348604020DFF867
S3150800F0106C1388600020DFF86413C8604FF48060C2
S3150800F020DFF858130861DFF8540300F0DEF93720DB
S3150800F030FFF7BCFD0700FFB2002F02D03800C0B2B0
S3150800F040ADE0DFF82403DFF8381308600820DFF89E
S3150800F050301348603020DFF8281388600220DFF874
S3150800F0602013C8600020DFF8181308610120DFF8B4
S3150800F07010134861DFF8080300F0DAF90020DFF81A
S3150800F080FC1208603320DFF8F41248604020DFF8ED
S3150800F090EC1288600020DFF8E412C8604FF4806044
S3150800F0A0DFF8D8120861B54800F09FF93320FFF75A
S3150800F0B07DFD0700FFB2002F02D03800C0B26EE017
S3150800F0C0AD48006840F22A6108420CD15FF400108E
S3150800F0D000F0DBF90028F3D000F0C1F900A941F8E7
S3150800F0E02600761CECE7082000F0CFF9002807D0A8
S3150800F0F0082000F0D7F9042007003800C0B24EE017
S3150800F100022000F0C2F9002807D0022000F0CAF950
S3150800F110022007003800C0B241E0202000F0B5F90F
S3150800F120002807D0202000F0BDF906200700380087
S3150800F130C0B234E04FF4007000F0A7F9002808D0F8
S3150800F1404FF4007000F0AEF9072007003800C0B28F
S3150800F15025E040F2FF5000F0A5F90098009911F457
S3150800F1607F41090251EA00600099090A11F47F41BA
S3150800F1700843009950EA116068600198019911F4F2
S3150800F1807F41090251EA00600199090A11F47F4199
S3150800F1900843019950EA116028603800C0B2FEBDE4
S3150800F1A000B583B001210C2000F07EFB0C2208215B
S3150800F1B0744800F020FC0C220921724800F01BFC60
S3150800F1C00C220A216F4800F016FC0C220B216D4810
S3150800F1D000F011FC0C220C216A4800F00CFC0C22F1
S3150800F1E00221694800F007FC4FF470600090012086
S3150800F1F08DF8050002208DF8040000208DF8060021
S3150800F20001208DF8070000A95E4800F09BFB04204A
S3150800F210009000A95C4800F095FB4FF480500090E0
S3150800F22000208DF8070000A9564800F08BFB012145
S3150800F2304FF4006000F056FB01215FF4800000F0F7
S3150800F24033FB07BD00000000A84D002030B58FB085
S3150800F25004000D005FF0FA51454800F03CFA002121
S3150800F260434800F01FFA424800F050F95FF000608A
S3150800F2700090464801900294402003900020049094
S3150800F280002005904FF4806006904FF48050079058
S3150800F2904FF480400890002009905FF440300A90AF
S3150800F2A004200B9003200C905FF400000D905FF48F
S3150800F2B000100E9000A92E4800F0C8F9012210216E
S3150800F2C02B4800F01AFA2021294800F0F8F9012104
S3150800F2D0274800F0E7F90FB030BD30B58FB004000D
S3150800F2E00D005FF0FA51224800F0F5F90021204898
S3150800F2F000F0D8F91E4800F009F95FF000600090A8
S3150800F30022480190029400200390002004900020D7
S3150800F31005904FF4806006904FF4805007904FF4A4
S3150800F32080400890002009905FF440300A9004203D
S3150800F3300B9003200C905FF400000D905FF4001012
S3150800F3400E9000A90A4800F081F901221021084808
S3150800F35000F0D3F92021064800F0B1F9012104484C
S3150800F36000F0A0F90FB030BDFFFF0F0000640240A7
S3150800F3705864024008E0FFFD342C0140344D00205B
S3150800F3801C4D002000080240000C0240802C014061
S3150800F39080B501214FF4006000F0B3FA00214FF464
S3150800F3A0006000F0AEFA01BD0021484A126811005B
S3150800F3B0474A1140027D83681A4343681A43C36863
S3150800F3C01A4303681A4303691A4311433F4A1160F3
S3150800F3D07047C0B23F49086070473F4908607047A8
S3150800F3E03D48006810F003007047002102683B4B57
S3150800F3F01A603B4A12681100C90AC9024268836842
S3150800F4001A43C3681A4303691A431143344A1160FD
S3150800F410704734480068C0B2704781B001000020C8
S3150800F42000903148401800900098006801B0704775
S3150800F430002102682D4B1A6042682D4B1A602D4A2E
S3150800F4401268110031F0F7018268C3681A4303692C
S3150800F4501A4343691A431143264A116070472648DE
S3150800F46000687047C0B2254908607047C9B20029CC
S3150800F47005D0234A12680243214B1A6004E0204A49
S3150800F480126882431E4B1A607047010000201D4A0D
S3150800F49012680A4202D00122100001E00022100080
S3150800F4A0C0B2704718490860704701000020154A25
S3150800F4B012680A4202D00122100001E00022100060
S3150800F4C0C0B270471049086070470000042C01401C
S3150800F4D00081FFFFA0802542002C0140082C014036
S3150800F4E00C2C0140102C0140142C0140242C014006
S3150800F4F0282C01402C2C0140802C01408C8525426B
S3150800F5003C2C0140342C0140382C01400168490844
S3150800F51049000160002101600021416000218160ED
S3150800F5200021C1600021016121214161DFF80C122F
S3150800F530884204D13D21DFF80822116085E0DFF812
S3150800F5400412884205D14FF47461DFF8F421116082
S3150800F5507BE0DFF8F411884205D15FF47411DFF817
S3150800F560E021116071E0DFF8E411884205D15FF00F
S3150800F5707461DFF8CC21116067E0DFF8D4118842A6
S3150800F58005D1DFF8D011DFF8D02111605DE0DFF892
S3150800F590CC11884205D1DFF8C811DFF8BC2111600B
S3150800F5A053E0DFF8C011884205D1DFF8BC11DFF857
S3150800F5B0A821116049E0DFF8B411884205D15FF04F
S3150800F5C03D51DFF8942111603FE0DFF8A41188422D
S3150800F5D004D13D21DFF89C21116036E0DFF898114F
S3150800F5E0884205D14FF47461DFF8882111602CE058
S3150800F5F0DFF88811884204D15FF474115D4A1160FE
S3150800F60023E05F49884204D15FF07461594A11606A
S3150800F6101BE05C49884203D14E495B4A116014E0FD
S3150800F6205A49884203D14E49574A11600DE0584954
S3150800F630884203D14C49544A116006E0554988422C
S3150800F64003D15FF03D51504A1160704710B4002253
S3150800F65003681A00504B1A400B68CC6823434C6960
S3150800F66023438C692343CC6923430C6A23434C6A9E
S3150800F67023438C6A23434C6B23438C6B23431A43E3
S3150800F680026043691A00D208D200CB6A0C6B234386
S3150800F6901A4342610B6943604B6883608B68C36099
S3150800F6A010BC7047C9B2002904D0026852F00102A2
S3150800F6B0026003E00268520852000260704700299F
S3150800F6C004D0026852F02002026003E0026832F0B9
S3150800F6D0200202607047264B984202D22F4B1A002E
S3150800F6E001E02F4B1A008B0003D52E4B0B40D3603D
S3150800F6F002E02C4B0B409360704710B40B060BD5F9
S3150800F700D2B2002A04D0436953F08003436103E070
S3150800F710436933F08003436180290DD0D2B2002AB1
S3150800F72005D0036811F01E042343036004E0036850
S3150800F73011F01E04A343036010BC7047106002401A
S3150800F740086002402860024040600240586002405B
S3150800F750706002403D0000200C6002408860024054
S3150800F760400F0020A060024000003D20B860024023
S3150800F7701064024008640240286402404064024063
S3150800F78058640240706402400C6402408864024077
S3150800F790A0640240B86402403F801CF0006002404A
S3150800F7A0006402407D0F7D0FF0B400210022002383
S3150800F7B0022400250226DFF868713F6817F00C0757
S3150800F7C039000F00002F04D0042F06D0082F08D0C8
S3150800F7D03CE0DFF8547107603BE0DFF850710760E2
S3150800F7E037E0DFF840713F68C7F380573D00DFF820
S3150800F7F034713F6817F03F073E00002D0DD0DFF843
S3150800F8002C71B7FBF6F7DFF81CC1DCF800C0CCF3A7
S3150800F810881C0CFB07F73B000CE0DFF80C71B7FB04
S3150800F820F6F7DFF800C1DCF800C0CCF3881C0CFB47
S3150800F83007F73B00DFF8EC703F68C7F301477F1C0A
S3150800F8407F003C00B3FBF4F7076002E0DFF8D870EE
S3150800F8500760DFF8CC703F6817F0F0073900090930
S3150800F860DFF8CC70CF5D3A000768D7404760DFF80D
S3150800F870B0703F6817F4E0573900890ADFF8B070AE
S3150800F880CF5D3A004768D7408760254F3F6817F431
S3150800F89060473900490BDFF89870CF5D3A00476832
S3150800F8A0D740C760F0BC7047C9B2002905D0214AC5
S3150800F8B0126802431F4B1A6004E01E4A126882430C
S3150800F8C01C4B1A607047C9B2002905D01A4A12683B
S3150800F8D00243194B1A6004E0174A12688243164B12
S3150800F8E01A607047C9B2002905D0144A1268024343
S3150800F8F0124B1A6004E0114A126882430F4B1A60D1
S3150800F9007047C9B2002905D00D4A126802430C4B4C
S3150800F9101A6004E00A4A12688243094B1A60704763
S3150800F92008380240043802400024F40000127A0025
S3150800F9300C0100203038024040380240443802406A
S3150800F94024380240F0B400220023002400252A00AF
S3150800F950102A4AD2012595402B000D681D402C001F
S3150800F9609C4240D1056803261700FFB27F00BE40BF
S3150800F970B543056005680E791700FFB27F00BE40E3
S3150800F980354305600D79012D02D00D79022D1AD166
S3150800F990856803261700FFB27F00BE40B543856021
S3150800F9A085684E791700FFB27F00BE4035438560F3
S3150800F9B0456801269640B543456045688E79964068
S3150800F9C0B6B235434560C56803261700FFB27F0007
S3150800F9D0BE40B543C560C568CE791700FFB27F0043
S3150800F9E0BE403543C560521CB2E7F0BC7047018380
S3150800F9F0704741837047F0B400230024D2B211F057
S3150800FA000705EDB2AD0012FA05F52B0089B2CD1047
S3150800FA1010EB850589B2CE1010EB8606366A0F27DD
S3150800FA2011F0070C5FFA8CFC5FEA8C0C17FA0CF7DE
S3150800FA30BE432E6289B2CD1010EB85052D6A1D4393
S3150800FA402C0089B2CD1010EB85052C62F0BC7047EE
S3150800FA502DE9F04F82460FF27060A5B017461D4695
S3150800FA60D0E90023CDE9122304AE00200491706288
S3150800FA700DF1500800E04F440020ADF8020012AB2B
S3150800FA804FF0FF3239460DF1020000F0ACFF814617
S3150800FA90B9F1010F08DA3878B0F1010969EB0909FB
S3150800FAA06FEA09004FEAD079BDF8020025280CBF95
S3150800FAB0A9F1010BCB46BBF1010F0EDB3C4614F84E
S3150800FAC0011B0498D0470490002800F0F782706A5A
S3150800FAD0401C7062BBF1010BF1D1BDF8020025286C
S3150800FAE007D10020F06030617061B061F06130626A
S3150800FAF005E00028BFD1706AE2E240F0010017F87D
S3150800FB00011F2029F9D023290DD02B2904D02D290E
S3150800FB1006D030290AD00CE040F0020080B2EEE7A9
S3150800FB2040F00400FAE740F00800F7E740F010005C
S3150800FB30F4E72A290DD129680A1D2A600968F162A5
S3150800FB40002904D5494240F00400F16280B27F1CC6
S3150800FB5013E00021F1620BE0F16A6FF0004399426D
S3150800FB6005D001EB810302EB43013039F1627F1CBA
S3150800FB703A78A2F130010A29EED339782E2903D032
S3150800FB804FF0FF31B1621EE017F8011F2A2906D18E
S3150800FB9029680A1D2A607F1C0968B16213E00021E2
S3150800FBA0B1620BE0B16A6FF00043994205D001EBF0
S3150800FBB0810302EB43013039B1627F1C3A78A2F126
S3150800FBC030010A29EED330860FF20450397800F056
S3150800FBD029FF08B117F8010B8DF842009DF842007D
S3150800FBE0682802BF39786829622005D06C2804BFC6
S3150800FBF038786C2803D171208DF842007F1C14A830
S3150800FC00B0603978B1F1250024D02038022840F2B6
S3150800FC10BF80133800F0E7800B3800F07D81401E66
S3150800FC2000F02681401E022840F2B280001F00F034
S3150800FC301F81401F00F08180401E00F0D480401EC6
S3150800FC402AD0C01E0BD0801E00F0CD80C01E00F04A
S3150800FC50CA8081E1F068411CF160252186E19DF8A2
S3150800FC6042006C28286813D0011D29600068B26A12
S3150800FC707060002A02D500F0EDFE07E0002100F0D2
S3150800FC8009FF00281ABF7168401AB06A30616FE12F
S3150800FC90011D2960026858E12868011D29600021B4
S3150800FCA00068CDE902014FF03C0E14A87060DDE94A
S3150800FCB0020111B908B9B26ACAB10206120FA0EB5D
S3150800FCC002123032AEF10103D2B29E463A2AA8BFDA
S3150800FCD02732000903F8082040EA0170090908BF1D
S3150800FCE0002804D0726814AB73449A42E5D314A969
S3150800FCF071447160CEF13C00B16A3061884207DA1E
S3150800FD00081AB0614FF6EF71308E084030862FE141
S3150800FD10002940F12D8196F8301001F014011029C0
S3150800FD2040F02681F16AF268891AB269891A081AB6
S3150800FD300128C0F21D81B0611AE19DF842006228CF
S3150800FD4018D0682806D06A280BD06C2819D07128D4
S3150800FD5007D016E02868011D29600068716A0180CD
S3150800FD6006E12A68101D28601268706AC117C2E980
S3150800FD700001FDE02868011D29600068716A0170AC
S3150800FD80F6E02868011D29600068716A0160EFE0E5
S3150800FD902868C01D20F00700286000F108022A60C4
S3150800FDA0D0E90023CDE90223002B04D5F068421CD4
S3150800FDB0F2602D220DE0308E820704D5F068421CD1
S3150800FDC0F2602B2205E0C00705D5F068421CF260F8
S3150800FDD0202200F80820F06814AA8018706002A88B
S3150800FDE000F092FBC4E09DF842006C2808BF2A6820
S3150800FDF011D0712808BF2A6802D02A686A280AD151
S3150800FE00D21D22F007022A60144604F108022A606D
S3150800FE10D4E9002303E0131D2B6000231268CDE903
S3150800FE200223682808BF92B207D0622808BFD2B258
S3150800FE3003D0742818BF7A2802D10023CDE90223FB
S3150800FE4096F8300000075FD5DDE90223002B08BFCE
S3150800FE50002A59D041F02000782855D1F068302280
S3150800FE6000F80820401C421CF26000F808104BE01D
S3150800FE709DF8420062280CD0682810D06A281AD04B
S3150800FE806C2823D0712816D074281FD07A280CD055
S3150800FE901CE02868021D2A6090F900201AE02868EC
S3150800FEA0021D2A60B0F9002014E02868021D2A60A5
S3150800FEB0002302680FE02868C01D20F007002860AC
S3150800FEC000F108022A60D0E9002304E02868021D30
S3150800FED02A600268D317CDE90223002B04DAF068FA
S3150800FEE0421CF2602D220DE0308E820704D5F068A0
S3150800FEF0421CF2602B2205E0C00705D5F068421CBB
S3150800FF00F260202200F80820F06814AA80187060B1
S3150800FF1002A800F051FA2BE09DF842006C2807D0A1
S3150800FF20F068411CF16029680A1D2A6009681DE00D
S3150800FF302868011D296001AA0068ADF804000020A0
S3150800FF40ADF806004FF0FF30B06202A9504600F047
S3150800FF50C3F800280CD5B1E0F068421CF2602522EF
S3150800FF6000F8082021B1F068421CF26000F8081079
S3150800FF70F06AF168401AB169401A3169401AF169A4
S3150800FF80401A7169401A316AA0EB010996F83000E7
S3150800FF907F1C400710D420208DF80000002409E0BB
S3150800FFA0012300AA02A9504600F0F8FC002840F0F8
S3150800FFB08580641C4C45F3DBF4680DF1500B0AE0B0
S3150800FFC01BF8011B0498D0470490002876D0706A65
S3150800FFD0401C7062641E002CF2D130208DF800009F
S3150800FFE04FF0000BB46909E0012300AA02A95046A4
S3150800FFF000F0D4FC002861D10BF1010BA345F3DB1B
S315080100003469D6F804B00AE01BF8011B0498D047F6
S315080100100490002852D0706A401C7062641E002C3D
S31508010020F2D130208DF800004FF0000BF46909E099
S31508010030012300AA02A9504600F0B0FC00283DD1D0
S315080100400BF1010BA345F3DB30697168746900EBA9
S31508010050010B09E01BF8011B0498D047049068B30B
S31508010060706A401C7062641E002CF3D130208DF832
S3150801007000004FF0000B346A08E0012300AA02A928
S31508010080504600F08BFCC8B90BF1010BA345F4DB14
S3150801009096F8300040077FF5EFAC20208DF8000078
S315080100A0002400E0641C4C45BFF6E6AC012300AA17
S315080100B002A9504600F072FC0028F3D04FF0FF3039
S315080100C025B0BDE8F08F0000000000000000000028
S315080100D0686A6C747A4C00002DE9F04F0E4695B0AB
S315080100E0D6F8309083461746B9F1000F48BF6FF02E
S315080100F0004900F0FBFC716B401802900FF6CC0228
S31508010100D2E90001CDE9030196F83800400702D487
S315080101100298412805D240200DF1140802900024C6
S3150801012009E000F0E9FC5FEA0008F8D14FF0FF307A
S315080101303FE1A9EB0A09B9F1010FC0F2B380398889
S3150801014003AA0DF1010000F031FD5FEA000A00F192
S31508010150BC80388818B9BAF1010A00F1B680D145D0
S31508010160C0F2A080706902990AEB0002914280F000
S315080101708A8074634042316A401AB169401A716AC9
S31508010180401AF169401AB16A441A96F838004007CC
S3150801019010D420208DF80000002509E0012300AACB
S315080101A03146584600F0FAFB002840F08E806D1C57
S315080101B0A542F3DB736942463146584600F0EEFB29
S315080101C0002840F0828030208DF800000025306A32
S315080101D0019008E0012300AA3146584600F0DEFBEB
S315080101E0002872D16D1C01988542F3DBB369F26868
S315080101F03146584600F0D2FB002866D130208DF8EA
S3150801020000000025706A019008E0012300AA314622
S31508010210584600F0C3FB002857D16D1C019885424A
S31508010220F3DBB069F168F36942183146584600F0C4
S31508010230B5FB002849D130208DF800000025B06AA9
S31508010240019008E0012300AA3146584600F0A6FBB2
S3150801025000283AD16D1C01988542F3DB96F83800DF
S3150801026040070ED520208DF80000002507E0012360
S3150801027000AA3146584600F091FB30BB6D1CA542D9
S31508010280F5DB00247461524670690DF101014044A1
S3150801029000F09AFC70695044706137F8020B002827
S315080102A07FF447AF706B7169401A316A401AB169B8
S315080102B0401A716A401AF169401AB16A451A96F8E4
S315080102C03800400710D400270CE04FF0FF3469E0EE
S315080102D0B0682021D847B0600028F6D0F06A401CE3
S315080102E0F0627F1CAF42F3DB7369424631465846DA
S315080102F000F054FB0028E8D1376AA1460AE0B06845
S315080103003021D847B0600028DFD0F06A401CF0627F
S3150801031009F10109B945F2DBB369F2683146584674
S3150801032000F03CFB0028D0D1776AA1460AE0B06804
S315080103303021D847B0600028C7D0F06A401CF06267
S3150801034009F10109B945F2DBB069F168F3694218A7
S315080103503146584600F022FB0028B6D1B76AA146B5
S315080103600AE0B0683021D847B0600028ADD0F06AFD
S31508010370401CF06209F10109B945F2DB96F838002B
S3150801038040070DD5002709E0B0682021D847B0609D
S3150801039000289AD0F06A401CF0627F1CAF42F3DB5A
S315080103A07461746305A880451CBF404600F048FC8B
S315080103B0204615B0BDE8F08F2DE9FA4E05460A46E6
S315080103C02F696F2A08BF082405D041F02000782834
S315080103D014BF0A241024D5E900013C2681468B4620
S315080103E0642A18BF692A05D1002903DAD9F1000957
S315080103F06BEB4B0BBBF1000F08BFB9F1000F0CD12A
S31508010400286B50B9082C36D195F83800000732D533
S3150801041030203B2687F83B002DE0E317484659462E
S31508010420224600F04DFCA4FB0023A9EB0202303260
S31508010430A6F1010AD2B256463A2A03DB9DF80030E4
S31508010440513B9A180AF8072081465FEA010B08BF53
S31508010450B9F1000F03D0E868F1198842DDD3082CF9
S3150801046009D195F83800000705D5F05D302802D086
S31508010470761E3020F055C6F13C00A861F119E960F5
S31508010480296B884208DA081A28624FF6EF71288F15
S3150801049008402887BDE8F38E00290ED595F838104F
S315080104A001F01401102908D1696B6A69891A2A6A47
S315080104B0891A081A0128A8BF2862BDE8F38E2DE912
S315080104C0D04306460F4614464FF00008DFF834902D
S315080104D012E0E00707D542464B463046394600F05A
S315080104E067FC06460F4664104046494642464B4657
S315080104F000F05EFC80468946002CEAD13046394632
S31508010500BDE8D083000024402DE9F34F8BB0D0E934
S315080105100089006B01AF002848BF062005D404BF37
S3150801052041F02000672802D101200B99086340F2A7
S31508010530FF720B984168C1F30A50904220D1080313
S3150801054002BF0B98006800280AD10B99032088611D
S315080105509DF8300061381A2844D30FF2844109E026
S315080105600B99032088619DF8300061381A2836D323
S315080105700FF264410B98C068032200F025FBF0E0F6
S31508010580012807DA0B9800F0E4FC012802DB0023B6
S315080105900026DDE00B9A526840F2FE3161F31E52E5
S315080105A00B994A6040F2FE31461A404649460022F6
S315080105B0002300F0EFFC38BF89F0004936B247F254
S315080105C097507043414990FBF1F636B2C6F10702DE
S315080105D0012A0ADB40464946FFF771FF27E00FF279
S315080105E0F431C7E70FF2F431C4E757420024384D16
S315080105F0DFF8E0B09A4612E0F80707D552465B469F
S315080106002046294600F0D4FB04460D467F10504685
S31508010610594652465B4600F0CBFB82468B46002F75
S31508010620EAD14046494622462B4600F0CBFC804695
S315080106309DF8300040F020058946662D0CBF06F16D
S315080106400A0006200B99096B4718142FA8BF132710
S3150801065030208DF804000DF10504DFF87CB0012F78
S315080106603CDB4046494600F0D1FD014604F108024B
S3150801067004234FF00A0CB1FBFCFC0CEB8C04A1EB38
S315080106804401303102F8011D0A21BCFBF1FE0EEBD3
S315080106908E04ACEB44043034714602F8014D5B1EFE
S315080106A0E7D1083F02F10804012FD8DB00F0C4FDA9
S315080106B002460B464046494600F0CCFD00225B4601
S315080106C000F076FB80468946CBE700BFA08601008D
S315080106D00000F03F0000244084D797410DF1050042
S315080106E0201A0DF1050702E0401E761E7F1C397897
S315080106F03029F9D0662D02D136B2711C03E0652D79
S315080107000CBF012100210B9A126B8B181BB2984260
S31508010710B8BF03461BB219001AD4814204DAC85D70
S315080107203528A8BF392000DA3020CA19521E00E040
S315080107305B1E12F80159491E8542F9D0392802D1A2
S31508010740C85D401CC855002902D57F1E5B1C761C56
S3150801075036B29DF830100B9800961BB23A4600F057
S3150801076003F80DB0BDE8F08F2DE9F04786B00646CF
S315080107708A4690461D4600F04AFE406A376B90F855
S315080107800090012D02DA01250FF258284AF02000BF
S31508010790BDF93840662808BF641C13D0672840F0A5
S315080107A0878014F1040F72DBBC4270DA96F83800C0
S315080107B0641C000702D4BD42B8BF2F4624B23F1BB2
S315080107C048BF0027F068B16924B2012C21DA302329
S315080107D04A1C0B54012F03DA96F83810090702D57B
S315080107E002F80090521CB261E742B8BF7C4224B2BB
S315080107F06142E7197162AF42B8BF3D462DB2F56154
S315080108002A46B3694146181800F0DEF9781BB0622A
S31508010810ADE00818A54216DA2A46414600F0D4F991
S31508010820B1696918B161601B7062012F03DA96F824
S315080108303800000705D5F06801F80090F069401CFA
S31508010840F061B76293E02246414600F0BDF9B0690E
S3150801085020182D1B012F03DA96F83810090703D53E
S31508010860F16800F80190401C2DB2B061AF42B8BFE3
S315080108703D46F3682DB22A4604EB0801C01800F07C
S31508010880A3F9B0692818B061781B70626FE0BD42A0
S3150801089004DA96F83810090758BF2F467F1E48BF55
S315080108A00027BAF1670F0CBF4FF0650A4FF0450AEA
S315080108B0B169F06818F8013B0B544A1C012F05DA97
S315080108C096F83810090758BFB26115D502F8009095
S315080108D0531CB361012F0FDB6D1E2DB2AF42B8BF9A
S315080108E03D462DB22A464146181800F06DF9B06901
S315080108F02818B061781B7062B069F16800EB0108CD
S31508010900200008F801AB03D42B2008F8010B03E0FB
S315080109102D2108F8011B6442002502AF08E00A22CE
S3150801092000A800F08DFD019807F8010B6D1C009CCD
S3150801093021B20129F3DA022D06DA4AF020006528E8
S3150801094004BF302008F8010B4DB9302008F8010B17
S3150801095007E06D1E02A8285C303008F8010B012D4E
S31508010960F7DAB069F1684018A8EB0000F06196F86B
S31508010970380000F0140010280DD17069B169081803
S31508010980716A0818F1690818B16A0818716B884202
S31508010990BCBF081A306206B0BDE8F087F8B5044650
S315080109A00D4616461F46002004E0E86A401CE86228
S315080109B07F1E002047B116F8011BA868A047A8604A
S315080109C00028F2D14FF0FF30F2BD00000000000010
S315080109D0000000006E616E004E414E00696E6600B1
S315080109E0494E46003000F8B504460D4616461F46E0
S315080109F000F037FD3B4632462946204601B0BDE8A0
S31508010A00F04000F044BD03681AB95A1E0260084650
S31508010A107047197811B94FF0FF307047591C0160BA
S31508010A20187870470278C9B28A421AB11CBF10F801
S31508010A30012FF9E718BF002070478268521C8260AF
S31508010A40426832B10268531C036011704168491E3D
S31508010A504160704700F10103810704D010F8011BBA
S31508010A6089B18107FAD10268B2F10131914311F0D6
S31508010A70803F04BF50F8042FF6E710F8011B11B1A7
S31508010A8010F8011BFBE7C01A70470268531C036084
S31508010A9011707047C9B2830706D0521E22D310F8C7
S31508010AA0013B9942F7D11FE0083A13D302F1040238
S31508010AB041EA012141EA014150F8043B121F21BFD5
S31508010AC04B40A3F1013C2CEA030C1CF0803FF3D008
S31508010AD0C9B2001F083210F8013B521E28BF91EA1D
S31508010AE0030FF8D818BF0120401E704780B500F0E3
S31508010AF0B8FC012002BD000070B5054605F10F00DE
S31508010B00C408E400C046C046A54232D2082C04D225
S31508010B10082402E0083000F093F82348026811001F
S31508010B200CD1011D0A6802B31368A34238BF111D0F
S31508010B30F8D310E01D68A5420DD2191D0B68002BCC
S31508010B40F8D11268011D00E0191D0B6893420CD0FB
S31508010B501D68A542F8D361B10D682A68A2F1080398
S31508010B60A3420AD26A680A6010E000F0B3FC0028C2
S31508010B70D0D1C046C046002070BD63190B60121B58
S31508010B800E686B6873600B681A602C600968002927
S31508010B901DBF4A68002A091D00210160C046C046DA
S31508010BA005F1080070BD0000804D002070B50446AF
S31508010BB00D46164600F055FC324629462046BDE844
S31508010BC0704000F057BC000062B38B0708D0521E74
S31508010BD011F8013B00F8013B00F024808B07F6D1A0
S31508010BE0830740F0208000BF103A07D330B4B1E83C
S31508010BF03810103AA0E83810F9D230BC530724BF90
S31508010C00B1E80810A0E8081044BF51F8043B40F8C1
S31508010C10043BD20724BF31F8022B20F8022B44BF2C
S31508010C200B7803707047083A07D3B1E80810083AF9
S31508010C3040F8043B40F804CBF7D25307E4E7000039
S31508010C4000B9704710B5A0F108042068082833D305
S31508010C5010F0070F30D1C046C0461848416809B19F
S31508010C608C4203D26160446017E019464B680BB1A8
S31508010C70A342FAD30A6853189C421BD3A34204D150
S31508010C8023689A180A600C4607E04A681AB123686D
S31508010C901B199A420ED362604C60616851B1226891
S31508010CA013198B4206D10023036008688018206057
S31508010CB048686060C046C04610BD0000804D0020EF
S31508010CC01B4213D1094236D12AB18446B0FBF2F050
S31508010CD002FB10C2704700F013BCFCD300220023AC
S31508010CE070470B000200002100207047904271EB0B
S31508010CF0030CF6D370B5B1FA81F4B3FA83F52C1B5C
S31508010D00A340C4F1200532FA05F63343A2405FF049
S31508010D100046E64002E05B085FEA3202841A71EB9C
S31508010D20030524BF204629467641F4D302000B0069
S31508010D303000002170BD012ACFD970B5140C20D01E
S31508010D40B1FA81F4B2FA82F5C4F120046419B4F156
S31508010D502006D6D3B2405FF00044F440002502E0F5
S31508010D6052085FEA3303C61A71EB020E24BF3046F6
S31508010D70714664416D41F3D302000B00200029003E
S31508010D8070BD0C46B1FBF2F102FB11452D0445EA93
S31508010D901045B5FBF2F402FB145580B240EA05454D
S31508010DA0B5FBF2F002FB105240EA044070BD0000A8
S31508010DB0B0B581EA030C0CF0004C40F2FF7515EA58
S31508010DC011541DBF15EA1357AC42AF4239E0E41975
S31508010DD023EA455343F48013C90241F0004141EA2D
S31508010DE0505EC7021100A7FB020200284FF000005F
S31508010DF0EEFB01204FF00001E3FB072118BF42F08B
S31508010E000102401800214941E3FB0E01A4F5806463
S31508010E100F0302D252004041494154F101046CDDED
S31508010E20470872F1004250F1000051EB0451A1F557
S31508010E3080115CBF41EA0C01B0BD4CEA05510020A6
S31508010E40B0BD05EA1357AC4214BFAF4241E050EAC0
S31508010E50410E1CBF52EA430E02E061460020B0BDB6
S31508010E6024423C441BD15FEA070EF6D0090302BFB0
S31508010E7001460020AEF1140EB1FA81F7AEEB070474
S31508010E8001FA07FE0C37C7F1200100FA07F7C84037
S31508010E904EEA000E23EA455343F48013A2E733F0E2
S31508010EA00043B3FA83F704BFB2FA82FE77440B3FD5
S31508010EB0E41BB7F1200E2FBF02FA0EF3BB40C7F1B0
S31508010EC0200E22FA0EFE38BF43EA0E03BA40641C0E
S31508010ED082E750EA410E14BF52EA430E6FF0000151
S31508010EE04FF4001717EB430F8ABF194617EB410F4B
S31508010EF0B5E74CEA05510020B0BDD4F10104B4F1BF
S31508010F0020070FDAC4F12007520828BF42F0010270
S31508010F1010FA07F501FA07F7E1BF2A43E04038431B
S31508010F20E1400FE0352C98DCC7F1200452EA400273
S31508010F3020FA07F218BF42F0010231FA07F0A14080
S31508010F400A43002172F1004250F1000051EB0C01F5
S31508010F50B0BD30B4436803F0004201211B031B0BEB
S31508010F60436004BF0368002B08D10DE00368DD0F59
S31508010F7045EA440444605B000360491E4468E30291
S31508010F80F4D523031B0B436043681A4342600846A2
S31508010F9030BC70474FF4001C1CEB410F94BF1CEB8F
S31508010FA0430F09E041EA030C50EA4C0C52EA0C0CD7
S31508010FB003D2994208BF9042704714BF8B428242BE
S31508010FC070470000F0B540F2FF7581EA030C0CF09A
S31508010FD0004C15EA11541DBF15EA1357AC42AF422E
S31508010FE0E5E0BC41C1F31301C3F31303801A994128
S31508010FF043F4801304D2641E4000494180185941C4
S31508011000C90241EA5051B1FBF3F603FB1611A2FBE3
S315080110100675D7EBC020A94102D2761E8018594120
S31508011020C90241EA5051B1FBF3FE03FB1E11A2FBB3
S315080110300E75D7EBC020A94103D2AEF1010E801877
S315080110405941890241EA9051760546EA8E2EB1FB4D
S31508011050F3F603FB1611A2FB0675D7EB8020A9410F
S3150801106002D2761E80185941C90241EA50514EEA08
S31508011070060EB1FBF3F603FB1611A2FB0675D7EBB9
S31508011080C020A94102D2761E80185941C90241EAF7
S315080110905051B1FBF3F703FB1711A2FB0735D3EB4D
S315080110A0C020A94167F100070CBF004247F00107BC
S315080110B066F3D5274FEA1E31B80814F5806412DDA8
S315080110C0BD0775F1004250EB0E5051EB045111F575
S315080110D0801F5CBF41EA0C01F0BD4CF07F6141F015
S315080110E0E0410020F0BDBD076D0840EA0E5041F40D
S315080110F08011D4F10104B4F120060ADAC4F12006FC
S315080111000200E04001FA06F3E1401843B2401543F4
S315080111100EE0342C13DCC6F1200445EA40056D08BF
S3150801112020FA06F2154321FA06F0A1400D430021E3
S3150801113075F1004250F1000051EB0C01F0BD0020A1
S315080111405FEA0C01F0BDCFB992185B41B3FA83F798
S3150801115004BFB2FA82F6BF190B3FB7F120062FBFBB
S3150801116002FA06F3BB40C7F1200622FA06F638BF93
S315080111703343BA401CB1E419641E33E77F4231F0A8
S315080111800041B1FA81F404BFB0FA80F6A4190B3C08
S31508011190B4F120062FBF00FA06F1A140C4F12006DA
S315080111A020FA06F638BF3143A0403C1B1AE7AC4289
S315080111B01ABF05EA1357AF4212E050EA41061CBFAF
S315080111C052EA4306BFE750EA4107304661461CBF6B
S315080111D041EA0551F0BD52EA430C08BFC143F0BDCF
S315080111E000204FF4001616EB410F98BF16EB430F7C
S315080111F008BF16EB410F24BFC14305E016EB430FA9
S315080112000CBF61464CEA0551F0BD0000400D40EAAD
S31508011210C120490080F00D8040F00040490DA1F53C
S315080112208061491C05D4D1F11F0154BFC840C017BC
S3150801123070474FF000007047010000BF09D0B0FAAF
S3150801124080F18840C91CC1F58461090501EBD021EB
S315080112504005704770B44FF0004591EA030F44BF4B
S315080112606B4000F04FB900BF841A71EB030604D234
S315080112706E40001BB141121973414FF4001C1CEB5F
S31508011280410F34BF7CEB430684E00C0DA4EB1356E7
S31508011290362E7DDC012E43DC45EAC32343EA52534D
S315080112A012BFD20292025B08240545EAC12141EA2E
S315080112B05051D2EBC020994125D407D1B0FA80F616
S315080112C010FA06F164D00020203608E0B1FA81F65A
S315080112D0B140C6F1200220FA02F21143B0404FEAAA
S315080112E0F474B4EB465434F001064FEA74040AD890
S315080112F0D6F50016760D04F00044F04061FA06F2C0
S315080113005040F1404840C00A40EA415021F00041AE
S3150801131028BF5FEA500550F1000044EBD12137E0C0
S3150801132045EAC323DB0A45EAC121C90AB6F1200504
S315080113300EDD42EA0242120CC5F1200603FA06F650
S31508011340EB4042EA06056D42984161F100010DE064
S3150801135062FA06F5F240554063FA06FC82EA0C0287
S31508011360F3405A406D42904161EB030111F4801F2D
S3150801137005D1641E620502D06D004041494121F440
